:0200000490006A
:10000000687A00207903009059750090414400906F
:100010005175009051120090D9A700900000000087
:10002000000000000000000000000000F9810090C6
:10003000891300900000000071750090018200900B
:100040009303009093030090930300909303009018
:100050009303009093030090930300909303009008
:10006000930300909303009093030090411300903A
:1000700093030090930300909303009093030090E8
:1000800093030090930300909303009093030090D8
:1000900093030090930300909303009093030090C8
:1000A00093030090930300909303009093030090B8
:1000B00093030090930300909303009093030090A8
:1000C000930300909303009093030090C9810090E4
:1000D0009303009093030090930300909303009088
:1000E000930300909303009000000000930300909E
:1000F0009303009093030090930300909303009068
:100100009303009093030090930300909303009057
:100110009303009093030090930300909303009047
:100120009303009093030090930300909303009037
:100130009303009093030090930300909303009027
:1001400000000000000000000000000000000000AF
:100150009303009093030090930300909303009007
:1001600093030090930300909303009093030090F7
:1001700093030090930300909303009093030090E7
:1001800093030090930300909303009093030090D7
:1001900093030090930300909303009093030090C7
:1001A00093030090930300909303009093030090B7
:1001B00093030090930300909303009093030090A7
:1001C0009303009093030090930300909303009097
:1001D0009303009061750090930300909303009047
:1001E0009303009093030090930300909303009077
:1001F0009303009093030090930300909303009067
:100200009303009093030090930300909303009056
:100210009303009093030090930300909303009046
:10022000930300909303009093030090000000005C
:10023000930300909303009000000000F10E0090E3
:100240009303009093030090930300909303009016
:100250009303009093030090930300909303009006
:1002600093030090930300909303009093030090F6
:10027000930300909303009093030090000000000C
:1002800093030090930300909303009000000000FC
:10029000000000009303009000F002F800F05CF80A
:1002A0000AA090E8000C82448344AAF10107DA45D1
:1002B00001D100F051F8AFF2090EBAE80F0013F0C7
:1002C000010F18BFFB1A43F001031847A8F90000FB
:1002D000C8F900000A4410F8014B14F00F0508BFDC
:1002E00010F8015B240908BF10F8014B6D1E05D002
:1002F00010F8013B6D1E01F8013BF9D1641E03D0DB
:10030000641E01F8015BFBD19142E4D37047000009
:100310000023002400250026103A28BF78C1FBD80E
:10032000520728BF30C148BF0B60704766290CF0E8
:100330001282752900F05480002070471FB50CF020
:10034000FDF900F05FFC0400002000210CF0E0F952
:10035000E0601FBD10B510BD00F054FD1146FFF761
:10036000EDFF0AF0D1FD00F072FD03B4FFF7F2FFDC
:1003700003BC00F0B3FD000009488047094800476E
:10038000FEE7FEE7FEE7FEE7FEE7FEE7FEE7FEE745
:10039000FEE7FEE704480549054A064B70470000A2
:1003A0000184009099020090685A0020687A002029
:1003B000686A0020686A00200FB41CB5074B06AAC3
:1003C0007B4469460090059800F003FC00206946D4
:1003D00000F012FC1CBC5DF814FB000035080000A6
:1003E0002DE9F0410646002410687529314616A50E
:1003F00010D0AFF30080002802DA404213A507E0D6
:1004000031688A0701D512A502E0490704D511A574
:10041000012401E0AFF3008000210A2206F1240745
:1004200009E0B0FBF2FCB0FBF2F302FB1C00303041
:1004300078541846491C0028F3D123462A463046F2
:10044000BDE8F04100F059B9000000002D000000A7
:100450002B000000200000002DE9F0474FF0000ABB
:1004600089460446C0F820A02046E1688847002855
:1004700076D0252806D0D4E901219047206A401C77
:100480002062F1E7E168204600268847C4F81CA0F6
:1004900005460027C4F818A02A2D09D028460CF0DC
:1004A0002FF938B304EB8708303DC8F8185019E02D
:1004B00059F8041B204604EB87029161E1688847E4
:1004C000012F054618D1E069002820DA26F0200621
:1004D0001DE0D8F8180000EB800005EB4000303834
:1004E000C8F818002046E168884705460CF008F96E
:1004F0000028EED1012F0AD02E2D08D12046E16828
:1005000088477F1C0546022F46F02006C4DBA06901
:10051000002803DA404246F00106A061F00701D04E
:1005200026F010066C2D0AD0682D08D04C2D39D03D
:100530006A2D35D0742D35D07A2D33D016E0E16890
:100540002F4620468847B84205460AD16C2F27D04F
:100550004FF48060E168064320468847054605E081
:1005600027E06C2F1AD04FF4807006430DB3A5F12D
:100570004100192802D8203546F400664A4629462B
:10058000204626604E46FFF7D1FE80B101280BD0F1
:10059000F61D26F0070000F1080965E74020E4E7B2
:1005A0008020D7E70020D5E706F104095CE728465C
:1005B00061E7206ABDE8F087032A40F2308010F03E
:1005C000030C00F0158011F8013BBCF1020F6244EE
:1005D00098BF11F801CB00F8013B38BF11F8013B7F
:1005E000A2F1040298BF00F801CB38BF00F8013B2C
:1005F00011F0030300F02580083AC0F0088051F89C
:10060000043B083A51F804CBA0E80810F5E7121DA6
:100610005CBF51F8043B40F8043BAFF30080D207C5
:1006200024BF11F8013B11F801CB48BF11F8012B91
:1006300024BF00F8013B00F801CB48BF00F8012BB4
:10064000704710B5203AC0F00B80B1E81850A0E810
:100650001850B1E81850A0E81850203ABFF4F5AF90
:100660005FEA027C24BFB1E81850A0E8185044BFEC
:1006700018C918C0BDE810405FEA827C24BF51F859
:10068000043B40F8043B08BF7047D20728BF31F84D
:10069000023B48BF11F8012B28BF20F8023B48BF9E
:1006A00000F8012B70474FF0000200B51346944646
:1006B0009646203922BFA0E80C50A0E80C50B1F1BA
:1006C0002001BFF4F7AF090728BFA0E80C5048BFCE
:1006D0000CC05DF804EB890028BF40F8042B08BF6C
:1006E000704748BF20F8022B11F0804F18BF00F868
:1006F000012B70477047704770472DE9F0470D4652
:1007000099469246044600F124080168880604D5FB
:10071000E06921F01001216000E00120A84201DD24
:10072000471B00E00027A1697A1902EB0900081AAB
:10073000A0612078C00602D42046AFF300800026D6
:1007400008E0D4E901211AF806009047206A401C0D
:10075000761C20624E45F4DB2078C0060AD5204680
:10076000AFF3008006E0D4E9012130209047206AF1
:10077000401C2062381EA7F10107F4DC07E0D4E931
:10078000012118F805009047206A401C2062281EAD
:10079000A5F10105F3DC2046AFF3008020780006C8
:1007A00002D50220BDE8F0870120FBE72DE9FF4FCD
:1007B0000C461E464FF0FF378BB0D2E90001DDF842
:1007C00060800A908A46C1F30A5505B93D4600216A
:1007D00008464FF00000BAF1000F00F4400005DABF
:1007E00000EB80004FF4400101EA50004FEA9059BD
:1007F000B9F1010F00DDB9460A9850EA4A000ED05F
:1008000044F61050A5F2FF3545432F14B8F1000F00
:100810001ED07542291E1EDDC9F100021CE0B8F190
:10082000010F4FF0000001D0302103E0F24305E05A
:100830002154401CB042FBDB3046002200212154F1
:100840000B99C1F80880C1E900200FB0BDE8F08F16
:10085000BD1B6D1CDEE74A4600DA694206A800F0BF
:100860005BFA06AB93E8070003AB83E8070050464A
:100870000A990BF065FB8DE80700A0F500501F38C2
:1008800000900398002D0ADD42F21F014A460844F9
:10089000002303A9039068460BF0CEFD09E0A0F504
:1008A00000504A461F38002303A9039068460BF006
:1008B000D8FD8DE807000004000C03D04FF0FF3096
:1008C000410800E01046B8F1000F03D0002200926A
:1008D00015461EE0751E05D400F098F930326255B9
:1008E0006D1EF9D5B3460122084302D000227F1CB9
:1008F00004E02078302801D100227F1E002A0997C9
:1009000084D01DE0112D07DA00F080F930326255F5
:100910006D1C50EA0102F5D1084302D00098C8B11D
:100920000EE00021681E05E0235C625C63542254E3
:10093000401E491C8142F7DBAB46A81B401E0990B4
:10094000002004F80B000B98099AC0F80880C0E951
:10095000002B7AE711264FF0000857E72DE9F04FFA
:1009600088460446D21D22F0070191B0D1E900016A
:10097000CDE90A010BF0ACFE02460B98C00F01D086
:100980002D2007E02068810701D52B2002E02021DF
:1009900001EAC000032A099001D0072A05DB0346BB
:1009A0004146204600F078F90BE12078800601D519
:1009B000E06900E00620B8F1650F814606D0B8F185
:1009C000660F18D0B8F1670F70D131E00020B9F18F
:1009D000110F009001DB112301E009F101030AAAC4
:1009E00001A90CA8FFF7E2FEDDE90C70002609F171
:1009F0000105834647E001204B4600904FF0004739
:100A00000AAA01A90CA8FFF7D1FEDDE90DB00C99E7
:100A10005D46002610B909F101000D18B9EB05007B
:100A200003D4C0F1FF3609F10105A5EB09002BE065
:100A3000B9F1010F01DA4FF001090020B9F1110FEE
:100A40000090484601DD112300E003460AAA01A9EF
:100A50000CA8FFF7ABFEDDE90C704D46002683467F
:100A6000207800070AD4AB4500DA5D4601A8012DC5
:100A700004DD411911F8011C302907D04F4502DA75
:100A800017F1040F04DA012082460FE06D1EEEE735
:100A9000002F02DCED1B3E4403E0781CA84200DD81
:100AA0007D1CB81B00F1010A4FF0004720780007B9
:100AB00003D4AA4501DB4FF0FF3A0021B7F1004F04
:100AC0000DF143088DF8431024D002202B23002F72
:100AD00001DA7F422D230A21021EA0F1010000DC71
:100AE0005FB197FBF1FC97FBF1F201FB1C7C174611
:100AF0000CF1300C08F801CDEEE7A8F1010003700D
:100B00002188090501D5452100E06521A0F10108F2
:100B100000F8011C09980FA9A1EB0807FF1D00B1FF
:100B20000120411901EBEA70A1693844081A401EFE
:100B3000A0612078C00602D42046AFF30080099857
:100B400028B1D4E901219047206A401C2062207816
:100B5000C00622D52046AFF300801EE0002E04DB45
:100B6000B34502DD01A8805D00E03020D4E9012119
:100B70009047206A401C2062761CAAF101005FEABF
:100B8000000A0AD100F03EF8C0680168405CD4E970
:100B900001219047206A401C2062281EA5F1010512
:100BA000DCDC07E0D4E9012118F8010B9047206A4A
:100BB000401C2062381EA7F10107F3DC2046AFF38A
:100BC0000080032011B041E601694A1C02610878E7
:100BD000704700B58FB0CDE901310021059105497D
:100BE0007944CDE9031011466846FFF735FC0FB094
:100BF00000BD0000E5FFFFFF0A6802F8010B0A6074
:100C00007047000000487047D005002030B5B0F1B3
:100C10000A0271F100034FEA900E4EEA817EB0EBBA
:100C20000E0061EB91014FEA101E4EEA017E10EBBF
:100C30000E0041EB11114FEA102E4EEA016E10EB3F
:100C40000E0041EB11214FEA104E4EEA014E10EB1F
:100C50000E0041EB1141401841F100014FEAD00074
:100C600040EA41704FEAD1014FEA810444EA9074AE
:100C700010EB800544EB01046D1944EB0404521B96
:100C8000A3414FF0000348BF0A3200D530BD401CDD
:100C900041F1000130BD00002DE9F0411F4604463E
:100CA00003260168072A01F4006004DB08B116A5D9
:100CB00005E016A503E008B115A500E015A521F093
:100CC00010002060A069C01EA0610FB1401EA0618D
:100CD0002046AFF300804FB1D4E901213846904758
:100CE000206A401C2062C01C206206E0206AFAE7ED
:100CF000D4E9012115F8010B9047761EF8D2204661
:100D0000AFF30080BDE8F0814E414E006E616E0091
:100D1000494E4600696E66002DE9F0478146164649
:100D20008AB0354878440DC88DE80D0032487844C3
:100D3000801C03AC0DC884E80D0041F69B300844CC
:100D4000372190FBF1F290FBF1F5A5F1800501FB55
:100D500012041B3C02D56442012000E00020DFF8B1
:100D600098A080460027FA44AAF1BE0A0EE0E007E8
:100D70000AD03246684607EB470101230AEB81019E
:100D80000BF06FFB8DE8070064107F1C002CEED188
:100D9000194F7F44AE3F19E0E80715D007EB041068
:100DA0000DF1180A90E80E008AE80E00C068F042C3
:100DB00001D1981908903246012306A903A80BF027
:100DC00050FB03AB83E807006D10641C002DE3D1DA
:100DD0004FF0010332466946B8F1000F03A802D074
:100DE0000BF02AFB01E00BF03CFBC9E90001C9F85C
:100DF00008200AB0BDE8F087B0BA0000004870478C
:100E0000B00500207546FFF7F9FFAE4605006946BC
:100E1000534620F00700854618B020B5FFF7BAFA10
:100E2000BDE820404FF000064FF000074FF00008EB
:100E30004FF0000BAC46ACE8C009ACE8C009ACE828
:100E4000C009ACE8C00921F007018D46704710B514
:100E50000446AFF300802046BDE81040FFF785BA96
:100E600030B44FF0013C50F8042BCCFA52F451F856
:100E7000043BD51A20D1FCB950F8042BCCFA52F41B
:100E800051F8043BD51A17D1B4B950F8042BCCFA59
:100E900052F451F8043BD51A0ED16CB950F8042B1A
:100EA000CCFA52F451F8043BD51A05D1002CDAD013
:100EB00030BC4FF00000704729BAB1FA81F111F04F
:100EC0001801D1F120008440F2D1CA40CB4012F089
:100ED000FF0213F0FF0330BCD01A704701491820FD
:100EE000ABBEFEE7260002007047000000000000D5
:100EF00045F2A840C2F2000000F04EBD0000000024
:100F0000B0B50446006842F2001140F48070C4F2AB
:100F10000201884218D142F20830C4F2020000688F
:100F200010F4403F18D003F03FF861680546B1F572
:100F3000803F05D0B1F5403F2AD0B1F5003F28D120
:100F4000080CB5FBF0F524E046F20830C5F60200C7
:100F5000006810F4403FE6D14FF40020002102F079
:100F6000C3FD61680546A1F580224FEAB2420A2A14
:100F70000FD8DFE802F00606060606064C4E505271
:100F800054006FF0010000EA5140B5FBF0F500E0BD
:100F9000AD0801F095F941F2030188420DD82068AF
:100FA00042F60151C0F231118D4281682CBF41F4EB
:100FB000807121F480718160B0BD4BF62140C0F298
:100FC000BE00854205D82068816821F440718160A7
:100FD000B0BD47F64100C0F27D10854206D82068BA
:100FE0000122816862F309218160B0BD20684FF25F
:100FF0008101C0F2FA218D42816804D8022262F395
:1010000009218160B0BD41F440718160B0BD2D09FE
:10101000BFE76D09BDE7AD09BBE7ED09B9E72D0AEB
:10102000B7E700000000000070B504460068826861
:101030008368DB0843EA9202D20769D0C268920152
:101040001FD5627D012A1CD1227D012A19D1016898
:10105000490612D44DF60441C0F20C0104394DD0BA
:101060000268520609D4026852065CBF02685FEA51
:10107000426202D402685206F0D54021016001218B
:1010800004E0022902D10221082611E082685207F9
:101090000AD58268920707D44FF6C0738268C7F6F4
:1010A000FF731A401032826001294FF0040610D0FD
:1010B000826812070AD58268920707D44FF6C07378
:1010C0008268C7F6FF731A4020328260032908BF86
:1010D0000C2601F0FDF821688968314218D00546D8
:1010E00003E000BF8068304212D001F0F1F8401BED
:1010F00006282068F6D381683142F3D0606D40F055
:1011000010006065A06D40F00100A065012070BD79
:10111000002070BD00000000B0B50168044688687A
:1011200080078A684FF0000033D412F0010208BF34
:10113000B0BD886800F00D0001281FD14FF6C072C5
:101140008868C7F6FF72104002308860032008608C
:1011500001F0BEF821688968C90701D10020B0BD3F
:10116000054602E08068C00712D001F0B1F8401BCC
:1011700003282068F6D38168C907F3D0606D40F07A
:1011800010006065A06D40F00100A0650120B0BDB9
:101190000020B0BD00000000F0B581B0044600683A
:1011A0008168C90751D14FF6C0778168C7F6FF77CC
:1011B00007F17F0211420AD0606D40F010006065B7
:1011C000A06D40F00100A065012001B0F0BD816874
:1011D000394041F00101816001F07AF842F20002E9
:1011E00046F20036C4F20202216802F5807302F56D
:1011F0004075C5F60206994208BF2E4691420A463E
:1012000008BF2E469942054604BF42F20002C4F2CE
:101210000202B0688A4218BF10F01F0015D100BF4B
:101220000868C00711D18868C00704D188683840B1
:1012300040F00100886001F04BF8401B2168032852
:10124000EED30868C007EBD1B6E7002001B0F0BDCF
:10125000FEE700000000000021280FD0202820D148
:1012600040F258420868C2F200021060087910711A
:1012700048795071887990710020704740F2584049
:10128000C2F2000002680A700268120A4A704288BC
:101290008A70C278CA7002790A7142794A7180797B
:1012A0008871002070470000002070470000000097
:1012B00010B540F2CC6441F20C41C2F20004C2F21B
:1012C00000010022204607F0D3FA40F60C412046E8
:1012D000C2F2000107F0BCFA002010BD00000000BF
:1012E0000A68012A25DBBFF34F8F00F01F034EF67B
:1012F0006871CEF200011A44A2F120030860002BAD
:1013000013DDA2F140032030012B08600DDBA2F1B8
:1013100060032030012B086007DB803A00F12003D6
:10132000002A00F140000B60E6DCBFF34F8FBFF3F3
:101330006F8F002070470000002070470000000001
:101340001021C4F2020151F8100C800658BF7047FA
:1013500040F276600022C2F200000270202241F8C2
:10136000082C0A6822F001020A6000BF01780029F7
:1013700004BF0178002904D1017811B9017800294E
:10138000F4D003F095BB000070470000000000009F
:1013900070B50A68002A024600681CD020F4F840A4
:1013A00001F1080CD1E9073618434B6A304301F1CB
:1013B0000C0E1843106052F8040F47F6FF7320EA32
:1013C00003054E6801F1100001F1140301F1180446
:1013D00045EA060113E00E1D47F6FF73984301F13D
:1013E000140C78CE034301F1180E1C4301F11C00CC
:1013F000254301F1200301F1240445EA0601DCF84C
:101400000060DEF800503143006829431B68084340
:10141000246840EA030100202143116070BD0000F0
:101420000246406943F6FE7320EA0303002043EAC4
:10143000410151617047000010B5024600696FF329
:1014400015006FF01F04D1E900ECD1E9023140EA48
:101450000E0004EB431340EA0C000343002043EA70
:101460004121116110BD00002DE9F043002A024620
:1014700052F8083F2ED040F6FF724FF20006CFF62A
:101480000F72CFF6FF761A40CB684F6906EB033335
:101490000026CFF6F0761A4306EB07573A438260F0
:1014A00050F80C2F8E68D1E900375D1E6FF00F03E6
:1014B00003EB071C6FF0FF030C6903EB062E002300
:1014C00002F07042CFF6FF7303EB044345EA0204D7
:1014D000024624E001F1080903F07048D1E9003424
:1014E00099E861026FF00F07013B07EB04146FF0FE
:1014F000FF0707EB00204FF20007CFF6FF7743EA24
:10150000080307EB053C00270025CFF6FF77CFF651
:10151000F0751C4307EB064E044305EB095388693D
:1015200044EA0C01471E41EA0E0040EA0301002094
:1015300041EA07611160BDE8F0830000000000008F
:10154000704700000000000070470000000000002D
:10155000704700000000000070470000000000001D
:101560007047000000000000F0B581B0002200923A
:1015700090F85020012A03D10221084601B0F0BDA5
:101580000768012380F85030BB685B0700F17F815A
:101590000B684FF6FF7CB3F1FF3FC0F20F0C11DD7B
:1015A00093FAA3F413EA0C0FB4FA84F44FF0010297
:1015B00008BF9C0E9B0E04F01F04A240FC6922434E
:1015C000FA6100E09B0E4A681F2603F01F03C2F376
:1015D000012402F01F02964007EB840403FA02F292
:1015E000256B25EA060632432263BA68BB68DB082E
:1015F00043EA9202D2077CD10A6807248B68C2F3BF
:10160000406607EB86067569C2F304529440A54311
:1016100003FA02F22A43726141F20002C5F6004267
:10162000126802F07042B2F1805F09D1D1F814E083
:10163000FA680E2303EA52040B69042B0DD13CE037
:10164000FA68D1F814E0FB68D2064FEA53032FD4AE
:1016500003F00E040B69042B2FD007F160020D6814
:101660000EFA04F605F0F84552F823402E4304F034
:101670000044264342F823600B694E7E52F8235003
:10168000012E25F0004508BF05F1004542F8235022
:101690000A7E0B693E69013A03F01F03B2FA82F237
:1016A00026F4F0465209D2029A4032433A6120E0D1
:1016B00003F008040B69042BCFD13A6E0B6802F0DB
:1016C000F842B2EB836F4FEA83633FD07A6E02F049
:1016D000F8429A4243D0BA6E02F0F8429A4247D09A
:1016E000FA6E02F0F8429A4203D1FA6E22F00042FA
:1016F000FA66BA68D20727D1CA680B6802F01805E3
:1017000003EA0C042CFA05F540F2000CD7F8C0608F
:10171000C4F2FF7CA6432540624545EA0602C7F8AD
:10172000C0205BD193FAA3F2002CB2FA82FC62468D
:1017300008BF9A0E9B0E013202F01E02092A21D820
:1017400024B30CF1010222E00021A5E03A6E22F060
:1017500000423A667A6E02F0F8429A42BBD17A6E43
:1017600022F000427A66BA6E02F0F8429A42B7D18D
:10177000BA6E22F00042BA66FA6E02F0F8429A425D
:10178000B3D0B6E764B10CF101020AE05A1C02F0D2
:101790001F0301229A4003EB430642EA06530EE080
:1017A0005A1C02F01F0301229A4003EB4306002358
:1017B000CFF6206303EB06531A4342F000738A68A6
:1017C0000724C3F3406607EB86067569C3F3045329
:1017D0009C40A5439A402A4372610B68B3F1FF3FD6
:1017E00001DD002158E042F2000146F2083CC4F25B
:1017F0000201C5F6020C01F5807201F540769742B0
:10180000324618BFACF108028F4242F2001508BF01
:10181000324647F48076C4F20205AE42D2F808E0C0
:101820002DD18A68D1F808111143C9072FD10021A1
:101830000EF0E074CCF684318B4208BF1EF4000138
:1018400030D00021CCF252718B4208BF1EF0807163
:101850002ED0ACF542718F424FF000011CD1002216
:10186000CCF6B872934208BF1EF4800214D1DCF8A3
:10187000001021F0E071214341F4800159E04FF65E
:101880000051CFF6FF715CF80110C907CFD0416D50
:1018900041F0200141650121002280F850200846D6
:1018A00001B0F0BDACF542718F4207D00021F3E7E3
:1018B000ACF542718F4235D00021EDE7DCF8001025
:1018C00042F6635221F0E071C0F23E52214341F4EE
:1018D0000001CCF8001040F20841C2F20001096892
:1018E0008909A1FB02129109022202EB4101009138
:1018F000009911B30099013900910099F9B100994B
:10190000013900910099E1B10099013900910099E4
:10191000C9B1009901390091009900294FF00001E7
:10192000E8D1B9E7DCF8001021F0E071214341F083
:101930008071CCF800100021AEE70021ACE7002157
:10194000AAE70021A8E70021A6E7000000000000A8
:1019500080B545F2A840C2F2000000F019F840F24C
:10196000C96C40F22C6EC2F2000CC2F2000E9CF860
:101970000020531CD9B22EF812000A3918BF19469C
:101980008CF8001080BD00007047000000000000CF
:101990000068006C704700002DE9F04746F20039FE
:1019A00042F2000804460068C5F60209C4F20208C3
:1019B00008F5807A08F540774A460168504508BF27
:1019C0003A464045436808BF3A4603EA0105A9077D
:1019D00096680CD5606DC00603D4606D40F400605D
:1019E00060652046FFF7ACFD20680221016015F01C
:1019F0000C0F06F01F0641D0616DC90603D4616D5E
:101A000041F400716165C16811F4406F30D1014645
:101A1000504508BF4146814218BF0946002E08BF05
:101A20000146052E08BF0146092E08BF0146C968B8
:101A300089041DD4016809071AD5816849070FD4A4
:101A4000416821F00C014160606D20F48070606598
:101A5000606DC0040CD4606D40F00100606507E06B
:101A6000606D40F010006065A06D40F00100A06561
:101A70002046FFF76DFF20680C21016015F0600F14
:101A800021D0616DC90603D4616D41F400516165D7
:101A90000146504508BF414646F00102814218BF49
:101AA0000946002E08BF0146072A08BF0146C26C3E
:101AB00012F4C07FC268C96865D02046FFF744FDB4
:101AC000206860210160290606D4E90510D4A90523
:101AD0001BD4E90643D525E0606D40F48030606595
:101AE000204600F0BDF9206880210160E905EED5AF
:101AF000606D40F4003060652046FFF72DFD2068E2
:101B00004FF480710160A905E3D5606D40F4802039
:101B100060652046FFF724FD20684FF400710160E6
:101B2000E9061CD5216B61B1002E50D0504508BF8D
:101B3000B946404508BFB946D9F8081011F4404FDE
:101B40000BD0606D40F480606065A06D40F00200D5
:101B5000A0652046FFF718FF206810210160690585
:101B600058BFBDE8F087616D41F480416165A16DAA
:101B700041F00801A1654FF4806101602046BDE895
:101B8000F047FFF7E5BC8B0105D502F4406201F494
:101B90000053D21891D1890201683FF58EAF11F040
:101BA00040013FF48AAF8168090714D4416821F0ED
:101BB00060014160606D20F480506065606DC0051B
:101BC0003FF57BAF606D40F00100606575E7C1686F
:101BD0008907B6D1C1E7606D40F010006065A06D67
:101BE00040F00100A06568E7B0B582B00446002867
:101BF0004FF00000019009D0606D58B120688168F5
:101C0000890012D48168C90019D54DE00125284604
:101C100002B0B0BD204600F027F90020A06584F88E
:101C20005000206881688900ECD54FF6C072816849
:101C3000C5F6FF72114081608168C90034D44FF647
:101C4000C0718268C5F6FF7101F18051114042F602
:101C5000635201F18051816040F20841C0F23E526E
:101C6000C2F2000109688909A1FB0212012101EBFE
:101C7000921101910199B9B101990139019101992B
:101C800000291FBF019901390191019918BF00294D
:101C90000AD0019901390191019929B101990139BC
:101CA000019101990029E7D18168C90009D4616DCA
:101CB000012541F010016165A16D41F00101A165AF
:101CC00000E000258168C1F38001626D02F010021E
:101CD0008918616D06D041F0100001256065284625
:101CE00002B0B0BD21F48171023161658168C9071C
:101CF00028D142F2001240F48071C4F202029142F3
:101D000042F20001C4F2020140F09E808A68D1F8DC
:101D100008311A43D20715D101F5807201F54073DD
:101D200046F2080C9042C5F6020C1A4618BF0CF594
:101D30003E72884208BF1A466068916821F47C119F
:101D40000843906000F0BCFA617D41F20402A36890
:101D500090424FEA4131226B0AD3102B08D1207FE9
:101D6000114341EA004141F01C01012807D00DE078
:101D7000207F1143194341EA0041012806D1206A1E
:101D80000022CFF6FE7202EB40400143606A28B1A8
:101D900000F47870A26A084340EA020120684CF21D
:101DA0000303CFF6F073C2681A401143C160816823
:101DB0008268D20842EA9101C90733D1217D44F2F9
:101DC000030CE26AC36842EA813123EA0C02114340
:101DD000C16094F838100129016916D14FF61E022E
:101DE000CFF6004201EA020C0021D4E90F23CFF61E
:101DF000FF7101EB02414CEA0302636C1143A26CD8
:101E00001943114341F0010101E021F00101016199
:101E10000169626B21F07041114301612046FFF7B7
:101E20006FF82068E168026B012922F00F0102D1EE
:101E3000A269013A114301630121606D61F3010060
:101E40006065284602B0B0BD46F20802C5F602023F
:101E50001268D2073FF460AF74E700000000000092
:101E6000704700000000000080B586B00021059199
:101E7000CDE9031146F200020068C5F602020291A4
:101E80009042019101D006B080BD44F2E040C5F619
:101E9000020050F8882C22F4403240F8882C026866
:101EA00042F080720260026802F080720092009A32
:101EB000026842F020020260006800F020000090FA
:101EC0000098802001900320CDE9020141F20040FA
:101ED00001A9C5F6020000F0FFF87F2001210022D1
:101EE00000F0EEFA7F2000F0DBFA06B080BD0000C3
:101EF000F0B581B042F2000546F20032C4F20205AC
:101F00000446006805F5807605F54071C5F60202C5
:101F1000B04208BF0A46A84208BF0A4697688068D0
:101F2000400703D494F85000012802D1022001B0E8
:101F3000F0BD012084F850002046FFF72DF920B1B4
:101F4000002184F8501001B0F0BD2068626D40F6A9
:101F5000017307F01F019A43B04218BF05460029DC
:101F600002F58072626518BF854203D1626D22F46A
:101F700080126265626D0023D2044FF0000244BFFC
:101F8000A36D23F00603A3651C23036084F850208F
:101F9000426822F01C02426027693A46082F236BF0
:101FA00018BF0422466842EA060242601BB9426832
:101FB00042F010024260854208D0092929D8012246
:101FC00002FA01F140F22122114222D0C1688901B6
:101FD00014D5616D012262F30D3161656FF040012E
:101FE000082F08BF6FF020014FF02002436808BFA0
:101FF0004022194041604168114341604FF6C07270
:102000008168C7F6FF72114004318160002001B081
:10201000F0BD616D41F480116165E9688901F5D514
:10202000616D012262F30D316165082F416806D1AF
:1020300021F020014160416841F0400105E021F0BC
:1020400040014160416841F020014160002001B041
:10205000F0BD00000000000010B5044690F85000EC
:10206000012801D1022010BD012084F85000032175
:102070002046FEF7D9FF18B1002184F8501010BD9A
:102080002068416821F01C0141602046FFF744F8B8
:102090000028F1D1606D41F2011188430130606583
:1020A0000020002184F8501010BD00000000000046
:1020B000B0B5044600F00CF940F200410546C2F20A
:1020C0000001621C097818BF0C4400BF00F000F941
:1020D000401BA042FAD3B0BD2DE9F04F85B00D688A
:1020E0000290002D00F0E68002988E4600F1264214
:1020F0000A2102F1FF7342F20042C5F602020024F7
:1021000090424FEAB32208BF0921092A4FF0010784
:1021100038BF4FEAB32100264FF000080091CDF8F8
:102120000CE00DE0DEF8005008F1010835FA07F088
:1021300006F1020607F1010704F1040400F0BA8079
:10214000A7F1010A012000FA0AF315EA0309E9D010
:10215000DEF804B00BF003056A1E012A22D80298AB
:102160004FEA4801D0F808C00191032101FA06F2B4
:1021700003992CEA020CD1F80CE00EFA06F1DDF816
:102180000CE041EA0C01816041686FEA020CCBF37C
:10219000001299430346019802FA0AF2114359606A
:1021A0000CE000BF0320032D00FA06F0029B6FEA4B
:1021B000000C304602D13046032526E0D968DEF80F
:1021C000082001EA0C018240022D41EA0201D96097
:1021D0001BD102466FF0030000EA5A010F20194498
:1021E00004F01C0300FA03F51046D1F820E0039A2E
:1021F0002EEA0505DDF80CE012699A40029B2A439D
:102200000A62DEF804B00BF00305196805FA00F065
:1022100001EA0C011BF4403F40EA010018603FF462
:1022200081AF44F2F44140F20845C5F60201C5F61B
:1022300000050F23086840F002000860086800F0FD
:10224000020004902AF00300049904F00C014259A2
:102250008B409A43009B03FA01F1114341514FF027
:10226000B0452868DEF8041040EA0902CB0258BFE6
:1022700020EA09028B022A6040F20405C5F6000537
:10228000286840EA090258BF20EA09028B032A6045
:10229000D5F8800040EA090258BF20EA0902C903C4
:1022A000C5F88020E86F40EA090258BF20EA090219
:1022B000EA6737E705B0BDE8F08F000000000000D6
:1022C00041F20000C5F600400068000C70470000B5
:1022D00045F66420C2F2000000687047000000006C
:1022E00040F2004045F66421C2F20000C2F2000153
:1022F00000780A6810440860704700000000000081
:1023000080B5032000F00CF901F0A6FE44F218415C
:102310004CF60203C5F60201C9F200030A68C2F3D3
:102320000322096801F00F019A5C595C02F01F0258
:10233000D04040F20C42C2F2000201F01F0120FA2C
:1023400001F1116040F20841C2F2000108600F2063
:1023500000F00AF800281CBF012080BD00F07CF8C6
:10236000002080BD0000000070B540F20046C2F2BF
:1023700000063178E1B1044640F20840C2F20000A4
:102380004FF47A72B2FBF1F10068B0FBF1F002F0A9
:102390003FF80F2C4FF0010508D838B94FF0FF3047
:1023A00000222146002500F08BF87460284670BD9D
:1023B000012070BD0000000010B54EF6A05E41780F
:1023C000CEF2000E90F800C04EF8081CDEF80010A7
:1023D00021F00101CEF8001041684EF8041C017B89
:1023E000C37A827A447B1B0643EA0171837B41EA0C
:1023F000C241C27B41EA8441447A41EA4341007AC6
:1024000041EA024141EA042141EA400040EA0C006D
:10241000CEF8000010BD00004EF62450CEF20000B1
:10242000BFF35F8F016821F48031016000210167F3
:1024300070470000000000004EF6245140F00100FB
:10244000CEF200010867086840F480300860BFF3EE
:102450004F8FBFF36F8F704780B582B044F2F44066
:10246000C5F60200016841F002010160016801F057
:10247000020101910199016841F400410160006885
:1024800000F4004000900098002001F0B5FF01F03A
:102490008FFF002002B0BDE8804001F0A1BF000026
:1024A000002848BF704700F01F01012202FA01F125
:1024B0004EF200124009CEF2000242F8201070479E
:1024C00070B54EF60C5C4FF0FF36CEF2000C00F10A
:1024D0006045DCF80030C3F3022E8EF00703042BB6
:1024E00028BF0423BEF1030406FA03F321EA030123
:1024F00000F00F0338BF0024043BB0F1FF3F6344FA
:1025000006FA04F003F10C0301FA04F1C8BF05F563
:10251000644322EA000008430001187070BD000007
:102520004EF60C514FF6FF03CEF200010A681A4036
:1025300060F30A2242F0806040F0FD70086070474E
:1025400001680122C0F8D824002280F8CC248869D0
:1025500040F000608861486D40F08052002042F0F9
:1025600003024A6570470000704700000000000049
:10257000026800205162704710B5D0F800E0DEF824
:102580002400E1B3DEF82830B1F1010C00EB134375
:102590002DD00020002100BF0EEB8000D0F80441B8
:1025A00041F00100C0B2844503EB14431FD90EEB88
:1025B0008000D0F8044141F00200C0B2844503EB32
:1025C000144314D90EEB8000D0F8044141F003000D
:1025D000C0B2844503EB144309D90EEB80000431EB
:1025E000D0F80441C8B2844503EB1443D4D80EEBB1
:1025F0008C0043EA0241C0F80411002010BD40EAFB
:102600000240CEF82800002010BD000000000000AD
:10261000D0F8E00406F088BB01EBC10200EB8202B7
:10262000D0F8E004126A06F0E7BA000000000000EB
:1026300001EBC10200EB8202D0F8E004D2F8602284
:1026400006F036BB00000000D0F8E00406F070BBD6
:1026500010B5044601F00F000A0600EBC00104EBC0
:10266000810213D402F51571002382F8553294F8D3
:1026700094240870012A12D0012084F89404206860
:1026800007F0C2F9002084F8940410BD02F114018F
:102690000123537594F894240870012AECD1022088
:1026A00010BD000000000000B0B50279044601F042
:1026B0000F00904201D90120B0BD090609D400EBFA
:1026C000C001002304EB810202F5157182F8553236
:1026D00007E000EBC001012304EB810202F11401C9
:1026E000537594F8942400258D70012A087001D147
:1026F0000220B0BD012084F89404206807F058FC43
:10270000284684F89454B0BD01F00F0101EBC101DB
:1027100000EB8100D0F86802704700000000000064
:10272000B0B5054601F00F000C0600EBC00105EB4B
:10273000810C05D40CF5157100248CF8554204E089
:102740000CF1140101248CF815404C7808708A6053
:10275000002C0B7118BF4883022B01D10020487157
:1027600095F89404012801D10220B0BD012085F81C
:102770009404286806F0D4FF002085F89404B0BDC6
:1027800080B501F00F0E0EEBCE0100EB810C0021A5
:10279000CCE998238379CCF868128CF855120CF5A3
:1027A0001571012B8CF854E208BFCCF87022006838
:1027B0001A4607F04DFC002080BD0000000000001C
:1027C000B0B50446007901F00F05854201D901201A
:1027D000B0BD080609D401EBC100002204EB800063
:1027E00000F5157180F8552207E005EBC5000122C0
:1027F00004EB800000F11401427594F89424012048
:102800008870012A0D7001D10220B0BD84F89404B3
:10281000206807F0F5FB1DB1002084F89404B0BDDA
:10282000A179206804F29C4207F092FB002084F812
:102830009404B0BD0000000010B501F00F0C01249D
:102840000CEBCC0100EB810E714601F814CF4FF078
:10285000000CC1F814C090F806C04C70CA60BCF1FE
:10286000010F0B6108BFCEF830200068624607F008
:10287000EFFB002010BD00002DE9F04F89B0056886
:102880008246284607F004FE10B109B0BDE8F08F7B
:10289000DAF8000007F02CFE0028F6D0D5F808087A
:1028A000C0F30D20CAF8D404DAF8000007F020FEC7
:1028B0008007DAF8000003D5416901F002014161A7
:1028C00005F50061039107F013FEC006DAF8000079
:1028D00005953FD5816921F0100181612C6A04F0D2
:1028E0000F05C4F3434006281CD002282BD147F61D
:1028F000F070044027D005EBC50022090AEB8005E3
:102900000598D5F8601207F0F7FDD5F86002D5F804
:10291000681200EB1410C5F8600201EB1410C5F842
:10292000680210E00AF29C410822059807F0E4FDD5
:1029300005EBC500C4F30A110AEB8000D0F8682249
:102940001144C0F86812DAF80000816941F0100102
:102950008161059D07F0CCFD0003CDF820A040F17A
:102960000A81DAF8000007F09FFD002800F00381DB
:1029700006460AF51D7800274FF4306B00240AF252
:102980009C4007900CE000BFB7EB560F04F1010428
:102990004FEA56060BF1200B08F1240800F0EB80FB
:1029A000F007F1D05FFA84F9DAF80000494607F041
:1029B00097FD8246C0076CD005EB0B0001218160BA
:1029C000089F38680BEB0001036C8A68BF79012F00
:1029D00029D117073BD4970658D412F0280F4FF08F
:1029E000000756D143F20B07C4F65477BB4202D31B
:1029F00012F4004247D1D8F8002009696FF3DF4193
:102A0000A2EB01014FF0000748F80C1CD4B9089B59
:102A1000D3F86422002A00F0A980D3F860020844A9
:102A2000C3F860020EE043F20B07C4F65477FF3799
:102A3000BB421AD1100426D490064FF0000701D5EE
:102A40002020886008984946FFF7F2FD21E043F214
:102A50000B000027C4F6547083421AD312F40040CE
:102A600017D04FF40040886013E03CB90899D1F8C2
:102A7000641219B90021079A07F06AFA08984946C2
:102A8000FFF7D6FD04E04FF4004000E0202088600E
:102A900000275FEA0A7029D505EB0B000821816049
:102AA000089801680BEB01000D6C8168090443F282
:102AB0000B01C4F65471A1F1010704D5BD4284BFD6
:102AC0004FF400418160089800F07EFDBD42059DF5
:102AD0004FF000070AD908988079012806D1089894
:102AE0000121079A006807F033FA00BF5FEACA6065
:102AF0000CD45FEA8A7010D45FEA8A6026D45FEA59
:102B00008A40DDF820A07FF53FAF29E005EB0B0000
:102B1000102181605FEA8A70EED56869000604D5ED
:102B20000399486840F48060486018F81D0C01283B
:102B300005D10898494608F81D7C00F095FB05EB87
:102B40000B00022181605FEA8A60D8D505EB0B009B
:102B5000202181605FEA8A40DDF820A07FF514AF74
:102B600005EB0B004FF4005181600DE70121079A3E
:102B700007F0EEF966E7DAF8000007F0B9FC400369
:102B8000DDF80CB040F1E580DAF8000007F084FCD5
:102B9000002800F0DE800646002705F5106004904E
:102BA0000AF29C40029007E000200137B0EB560F7C
:102BB0004FEA560600F0CD80F007F5D0DAF80000B5
:102BC000A846F9B2079107F077FC0446C007049DB8
:102BD0000CD1200734D4E00638D460063CD4A007DA
:102BE00040D420064546DFD556E000BF07F00F0071
:102BF000012305EB4712DBF8341003FA00F021EA59
:102C00000000CBF8340093609AF80600012811D137
:102C100007EBC7000AEB8000D0E9071211440162FC
:102C200047B9DAF8240028B9DAF800000121029A3D
:102C300007F08EF950460799FFF7EEFC2007CAD53A
:102C400005EB471008218160E006C6D505EB47106B
:102C5000102181606006C2D505EB471040218160DC
:102C6000A007BED54046394607F0A2FB07EBC700D8
:102C70000AEB800010F8171F012905D1002101700F
:102C80005046079900F0ECFA05EB471002218160ED
:102C9000200645467FF588AF07EBC7000AEB8002A8
:102CA000914659F8241FC84658F8040F8142FFF492
:102CB0007BAF9346DAF800400D1A5BF81C3F9D424B
:102CC00088BF1D4604EB4713069405F1030CD3F8A7
:102CD0001859ADB2B5EB9C0F26D303F5106A02F17B
:102CE000200500BF81421FD90C1A0899DBF80000AB
:102CF00084428A7988BF044629680092A3B2DDE93C
:102D0000060207F029FD2868E11C20442860D8F855
:102D100000002044C8F80000DAF8182092B2B2EBA4
:102D2000910FD9F80010DDD28142DDF820A0059D79
:102D3000DDF80CB03FF638AF069A07F00F0001211E
:102D400001FA00F0D2F8341821EA0000C2F8340881
:102D50002AE7DAF8000007F0CBFB00281BD4DAF8EA
:102D6000000007F0C5FB000534D4DAF8000007F0D6
:102D7000BFFB00013FD4DAF8000007F0B9FBC00444
:102D80004BD4DAF8000007F0B3FB8004DAF8000057
:102D900000F161817AE1DBF8040020F00100CBF85A
:102DA00004009AF8CC04012807D100208AF8CC044A
:102DB00000215046FFF7D8FB02E0504600F0E8FB48
:102DC000DAF80000416901F00041416107F090FB31
:102DD0000005CAD5DBF80800C00702D0504600F055
:102DE0001BFCDAF80000416901F40061416107F061
:102DF0007FFB0001BFD5DAF80000416901F00061F6
:102E000041619AF8CC14F9B1504600F005FCDAF8AB
:102E1000000007F06DFBC004B3D5DBF804001021FF
:102E200020F00100CBF80400DAF8000007F0C0FA47
:102E30009AF80400002800F0D580411E00F0030C31
:102E4000032915D2002181E001218AF8CC14406DBC
:102E50000121C0F38300CAF8D0045046FFF784FB79
:102E6000DAF8000007F044FBC0047FF58AAFD4E72E
:102E700005F53662A0EB0C0E4FF6A0584FF6C05584
:102E80004FF6E0544FF6006000214FF67F37CFF643
:102E9000FF78CFF6FF75CFF6FF74CFF6FF7000BF57
:102EA000A2F51873A2F5107604319F608E4552F892
:102EB000083023F4001342F8083042F8587C52F8E6
:102EC000603C23F4001342F8603C52F8603C43F04D
:102ED000006342F8603CB760A2F50876535923F4CA
:102EE0000013535142F8387C52F8403C23F400134D
:102EF00042F8403C52F8403C43F0006342F8403C0A
:102F0000B760A2F50076135923F40013135142F869
:102F1000187C52F8203C23F4001342F8203C52F86D
:102F2000203C43F0006342F8203CB760135823F480
:102F3000001313509760136823F400131360136891
:102F400043F00063136002F18002A9D1BCF1000FCD
:102F5000059847D000F5106200F5306002EB41168D
:102F60004FF67F374B01BCF1010FB76000EB411505
:102F7000D65826F40016D650AF60C65826F4001670
:102F8000C650C65846F00066C6502BD00131BCF181
:102F9000020F4FEA411502EB411600EB4111B760F9
:102FA000565926F4001656518F60415921F40011EC
:102FB0004151415941F00061415113D003F14001A9
:102FC0004FF67F37531846189F60535823F4001369
:102FD0005350B760425822F400124250425842F017
:102FE00000624250DBF81C0040F00110CBF81C00DE
:102FF0009AF80F0040B1DBF8840040F00B00CBF8EA
:1030000084000BF1440008E0DBF8140042F22B01CD
:103010000843CBF814000BF1100001680AF29C423F
:1030200041F00B010160DBF8000020F4FE60CBF8FA
:1030300000009AF80610DAF8000006F089FFDAF8C6
:103040000000416901F48051416107F051FA8004A8
:10305000DAF800001AD506F0AFFBDAF8000007F046
:1030600007FA8AF80700DAF8004000F09DFF9AF8A6
:1030700007200146204607F0E3FA504600F074FAB4
:10308000DAF80000416901F40051416107F030FABB
:10309000000706D4DAF8000007F02AFA00060DD47B
:1030A00034E0504600F078FADAF80000416901F0A7
:1030B0000801416107F01CFA000627D505998869C7
:1030C00020F0800088619AF8040002281ED30AF2DA
:1030D0007B24012504E000BF01352434854215D24C
:1030E00021780129F8D105F00F002A0600EBC00075
:1030F0000AEB800000F1140158BF00F51571DAF8F1
:10310000000007F0C5F89AF80400E5E7DAF80000D7
:1031100007F0EEF9C00251D4DAF8000007F0E8F940
:10312000800240F180809AF8040002282DD305998E
:103130000AF51F7201F532610123012706E000BF85
:1031400001372031874202F124021ED20E68B6F107
:10315000FF3FF5DC1578012DF2D1DAF8D45406F4EE
:10316000803605F00105AE42EAD1059D02F8013C2A
:10317000AE6946F08006AE616E693606E0D4DBF8D3
:10318000040040F40070CBF80400DAF80000416954
:1031900001F40011416107F0ABF9400049D55046F8
:1031A000FFF736FADAF80000416901F08041416129
:1031B00007F09EF9400743D4FFF767BB9AF8040075
:1031C000022825D305990AF13C0501F51264012670
:1031D000012705E001372034874205F1240517D285
:1031E0002168B1F1FF3FF5DC29780129F2D107F020
:1031F0000F0005F8016C00EBC0000AEB800000F145
:103200001401DAF8000007F043F89AF80400E1E747
:10321000DAF80000416901F48011416107F068F9B2
:1032200080023FF580AFDAF8000007F061F9400056
:10323000B5D4DAF8000007F05BF940077FF525AB5D
:10324000DAF800004468610704D55046FFF7FCF93E
:10325000DAF8000041682143416009B0BDE8F08F11
:10326000D0F8E00405F0B0BDD0F8E00405F0C0BD32
:10327000F0B581B0002800F02781044690F895044D
:1032800028B9002084F89404204600F031F9032086
:1032900084F89504206806F053FED4E90001267CEA
:1032A000D4E90223009606F097FA002840F009813D
:1032B0002068002107F07CF9002840F00281217984
:1032C000002900F0F580A1F1010C01F0030EBCF122
:1032D000030F4FF0000345D304F19A02A1EB0E0057
:1032E0000126002502F8865C6F1C22F86C5C02F84F
:1032F000627C22F8487CAF1C02F83E7C22F8247CD9
:10330000EF1C043502F8856C02F8823CA84242F8B2
:103310007E3C42F87A3C42F8763C02F8616C02F856
:103320005E3C42F85A3C42F8563C42F8523C02F8A5
:103330003D6C02F83A3C42F8363C42F8323C42F8E6
:103340002E3C02F8196C02F81A7C178002F8163C21
:1033500042F8123C42F80E3C42F80A3C02F190025C
:10336000C0D12B46BEF1000F2DD003EBC3000122CC
:10337000BEF1010F04EB80054FF000006A752B755C
:10338000EB852876C5E9070068621CD05D1CBEF19C
:10339000020F05EBC50604EB860672753575F585DB
:1033A0003076C6E9070070620DD0981C012300EB4F
:1033B000C00204EB820253751075D0850020107690
:1033C000C2E907005062BCF1030F4FF0000237D38F
:1033D00004F53470A1EB0E01002300BF00F87B2C34
:1033E0005F1C00F87C3C00F8782C40E91D2240F876
:1033F0006C2C00F8572C00F8587C9F1C00F8542CBB
:1034000040E9142200F8347CDF1C043340F8482CD7
:1034100000F8332C994200F8302C40E90B2240F898
:10342000242C00F80F2C00F8107C00F80C2C40F82D
:10343000082C40F8042C026000F19000CED11A460E
:10344000BEF1000F34D002EBC200BEF1010F04EB5D
:1034500080014FF0000081F8550281F8542281F874
:103460005802C1E99700C1F8640221D0511CBEF195
:10347000020F01EBC10304EB830383F8550283F8C9
:10348000541283F85802C3E99700C3F864020FD0BE
:10349000901C002200EBC00104EB810181F8552251
:1034A00081F8540281F85822C1E99722C1F86422B8
:1034B000D4E90001277CD4E90223009706F00CFB35
:1034C00028B1022084F89504012001B0F0BD00204D
:1034D0006074012084F89504207B012802D12046E5
:1034E000FFF72EF8206806F0E7FA002001B0F0BDE3
:1034F00010B586B044F2D8440221C5F6020454F84F
:10350000840C61F3155044F8840CD4F8340340F073
:103510008070C4F834034FF4C050CDE9010100209D
:103520000390032004900A200590002001A9C5F60D
:103530000200FEF7D1FD2068062140F00060206007
:103540002068002200F0006000900098A06A20F03F
:103550008050A0626520FEF7B3FF6520FEF7A0FF54
:1035600006B010BD00000000B0B5C5790446002DBE
:1035700018BF0125D0F8E00405F062FCD4F8E0049F
:103580002946BDE8B04005F0ABBC000000000000DB
:10359000D0F8E00405F088BCD0F8E00405F090BC59
:1035A00010B5044690F89404012801D1022010BD02
:1035B000012084F894046174206807F02DF800203D
:1035C00084F8940410BD0000D0F8E02400F29C417F
:1035D000104605F091BC000010B5044690F8940424
:1035E000012801D1022010BD2068012184F8941423
:1035F000C168490606D5617B012903D1816B41F47D
:103600008031816306F0CCFE206806F045FA002088
:1036100084F8940410BD0000D0F8E00405F0ACBCC0
:1036200080B544F2304CC5F6020C5CF8083C5CF8FE
:10363000082CC2F3051E5CF8041CDCF8042001F021
:103640000101BEF1000FC2F3CC0202FB01F100EE5A
:10365000101AB8EE400A1DD003F00303022B1ED04F
:10366000012B2FD01BB95CF8301C890674D401EEF5
:1036700010EA9FED4D3AB8EE411ADCF800106FF3F6
:103680005F2102EE101AB8EE422AA0EE032A9FED47
:10369000490A29E00021C0E90011816080BD01EEE6
:1036A00010EA9FED413AB8EE411ADCF800106FF3D2
:1036B0005F2102EE101AB8EE422AA0EE032A9FED17
:1036C0003B0A11E001EE10EA9FED373AB8EE411ADD
:1036D000DCF800106FF35F2102EE101AB8EE422AF8
:1036E000A0EE032A9FED320AA2EE000A80EE010A44
:1036F000DCF80010B7EE002AC1F3462101EE101AE3
:10370000B8EE411A31EE021A80EE011ABCEEC11A6F
:1037100080ED001ADCF80010C1F3064101EE101A2A
:10372000B8EE411A31EE021A80EE011ABCEEC11A4F
:1037300080ED011ADCF80010C1F3066101EE101AE9
:10374000B8EE411A31EE021A80EE010ABCEEC00A50
:1037500010EE101A816080BD5CF8301C49F2000246
:10376000C0F2D03202EE10EAC1F3C1019FED0E3A71
:1037700022FA01F1B7EE004A01EE101AA0EE034A58
:10378000B8EE411AB8EE422ADCF800106FF35F2160
:1037900000EE101AB8EE400A34EE000A20EE010ADC
:1037A00080EE020AA4E700BF00000039001B374B7F
:1037B0000024744A0024744C80B544F2384CC5F699
:1037C000020C5CF8103C5CF8102CC2F3053E5CF86F
:1037D0000C1CBEF1000FC1F30011DCF80420C2F391
:1037E000CC0202FB01F100EE101AB8EE400A1DD027
:1037F00003F00303022B31D0012B1CD0DBB95CF8A2
:10380000381C890674D401EE10EA9FED4D3AB8EEEB
:10381000411ADCF800106FF35F2102EE101AB8EEC7
:10382000422AA0EE032A9FED490A29E00021C0E9BF
:103830000011816080BD01EE10EA9FED413AB8EEC3
:10384000411ADCF800106FF35F2102EE101AB8EE97
:10385000422AA0EE032A9FED3C0A11E001EE10EA95
:103860009FED373AB8EE411ADCF800106FF35F2194
:1038700002EE101AB8EE422AA0EE032A9FED310A9A
:10388000A2EE000A80EE010ADCF80010B7EE002A72
:10389000C1F3462101EE101AB8EE411A31EE021AB8
:1038A00080EE011ABCEEC11A80ED001ADCF800109F
:1038B000C1F3064101EE101AB8EE411A31EE021AB8
:1038C00080EE011ABCEEC11A80ED011ADCF800107E
:1038D000C1F3066101EE101AB8EE411A31EE021A78
:1038E00080EE010ABCEEC00A10EE101A816080BDA5
:1038F0005CF8381C49F20002C0F2D03202EE10EA45
:10390000C1F3C1019FED0E3A22FA01F1B7EE004A70
:1039100001EE101AA0EE034AB8EE411AB8EE422AA0
:10392000DCF800106FF35F2100EE101AB8EE400AC9
:1039300034EE000A20EE010A80EE020AA4E700BF7E
:1039400000000039001B374B0024744A0024744CDB
:1039500080B544F2404CC5F6020C5CF8183C5CF8AB
:10396000182CC2F3055E5CF8141CBEF1000FC1F305
:103970000021DCF80420C2F3CC0202FB01F100EECE
:10398000101AB8EE400A1DD003F00303022B31D009
:10399000012B1CD0DBB95CF8401C890674D401EE05
:1039A00010EA9FED4D3AB8EE411ADCF800106FF3C3
:1039B0005F2102EE101AB8EE422AA0EE032A9FED14
:1039C000490A29E00021C0E90011816080BD01EEB3
:1039D00010EA9FED413AB8EE411ADCF800106FF39F
:1039E0005F2102EE101AB8EE422AA0EE032A9FEDE4
:1039F0003C0A11E001EE10EA9FED373AB8EE411AA9
:103A0000DCF800106FF35F2102EE101AB8EE422AC4
:103A1000A0EE032A9FED310AA2EE000A80EE010A11
:103A2000DCF80010B7EE002AC1F3462101EE101AAF
:103A3000B8EE411A31EE021A80EE011ABCEEC11A3C
:103A400080ED001ADCF80010C1F3064101EE101AF7
:103A5000B8EE411A31EE021A80EE011ABCEEC11A1C
:103A600080ED011ADCF80010C1F3066101EE101AB6
:103A7000B8EE411A31EE021A80EE010ABCEEC00A1D
:103A800010EE101A816080BD5CF8401C49F2000203
:103A9000C0F2D03202EE10EAC1F3C1019FED0E3A3E
:103AA00022FA01F1B7EE004A01EE101AA0EE034A25
:103AB000B8EE411AB8EE422ADCF800106FF35F212D
:103AC00000EE101AB8EE400A34EE000A20EE010AA9
:103AD00080EE020AA4E700BF00000039001B374B4C
:103AE0000024744A0024744C10B584B0024641F698
:103AF000FF7300209B1A70EB01032EDB40F2FF33B3
:103B00009B1A70EB010354DA82F480630B4300F0DC
:103B1000CD8082F400630B4300F0E08082F4805299
:103B2000114340F0448144F20041C5F60201086DA2
:103B3000C0F30232042A00F2058248F20000C0F20B
:103B4000BB00DFE812F0050036013B013401400103
:103B50000868800140F1F68103E147F6FF739B1A84
:103B600070EB010348DA82F400430B4300F0CE808F
:103B700082F480330B4300F0DB8082F40022114397
:103B800040F0158144F20040C5F60200816D01F459
:103B90004031B1F5003F00F0EA80B1F5803F00F020
:103BA000F480002940F0CE810068000100F17081AE
:103BB000C8E182F480730B4348D082F40072114351
:103BC00040F0F58044F20041C5F60201086DC0F3F3
:103BD0008212042A00F2B68148F20000C0F2BB0053
:103BE000DFE812F0050003010801E5000D01086897
:103BF000800140F1A781B4E082F400530B433FD031
:103C000082F48042114340F0D28044F20044C5F671
:103C10000204A06DC0F30270052800F29381DFE872
:103C200010F00600630167016B017001720100F082
:103C3000BBF9216A4CF60202C9F20002C1F302117B
:103C4000515C01F01F01C84004B010BD44F20041B6
:103C5000C5F60201086D00F00702042A00F2728125
:103C600048F20000C0F2BB00DFE812F00500DB0004
:103C7000E000A100E5000868800140F1638170E088
:103C800044F20040C5F60200016DC1F3024105296E
:103C900000F25881DFE811F0060041014A015301AA
:103CA00059014A0000F0A8F904B010BD44F20041E7
:103CB000C5F60201886DC0F34252042A00F2428127
:103CC00048F20000C0F2BB00DFE802F003C7CB718E
:103CD000CF000868800140F1358142E044F20041A4
:103CE000C5F60201886DC0F30262042A00F22A813F
:103CF00048F20000C0F2BB00DFE802F003C7D05971
:103D0000D9000868800140F11D812AE044F200409A
:103D1000C5F60200016D01F04051B1F1005F3ED0E7
:103D2000B1F1805F19D0002940F00C810068EBE010
:103D300044F20040C5F60200C16C0068C90303D418
:103D4000800140F1FF800CE0000140F1FB8001A800
:103D5000FFF732FD039804B010BD0068800140F108
:103D6000F18001A8FFF75CFC029804B010BDC16CA3
:103D7000036811F04051026840F0F18013F0040331
:103D800000F0ED80C2F3C100F8E00068800040F16F
:103D9000D98001A8FFF7DCFD039804B010BD0068CE
:103DA000000140F1CF8001A8FFF706FD029804B0A2
:103DB00010BD0868000140F1C58069E00868800016
:103DC00040F1C0806DE0C86C0B6810F0405208688C
:103DD00003D113F0040340F0CF80B2F1805F75D1BE
:103DE00010F4807040F0C18070E00868000140F17C
:103DF000A9804DE00868800040F1A48051E0C86CC3
:103E00000B6810F04052086803D113F0040340F02F
:103E1000B380B2F1805F59D110F4807040F0A5807A
:103E200054E00868000140F18D8031E008688000AE
:103E300040F1888035E0C86C0B6810F0405208688B
:103E400003D113F0040340F09780B2F1805F3DD1BD
:103E500010F4807040F0898038E00868000171D566
:103E600016E0086880006DD51BE0C86C0B6810F088
:103E70004052086802D113F004037DD1B2F1805F93
:103E800024D110F4807070D120E00868000159D569
:103E900001A8FFF791FC019804B010BD08688000EC
:103EA00050D501A8FFF754FD019804B010BDC86CAF
:103EB0000B6810F04052086802D113F004035BD184
:103EC000B2F1805F02D110F480704ED1086810F416
:103ED00000301CBF41F60030C0F2B700B2F1005F05
:103EE00018BF002004B010BD206800012AD517E0DB
:103EF0002068800026D51CE02068400722D5206875
:103F00003AE0206822E0206841F600318003C0F2E8
:103F1000B70101EAE07004B010BD0068000111D5DE
:103F200001A8FFF749FC029804B010BD00688000AA
:103F300008D501A8FFF70CFD029804B010BD016878
:103F4000490718D4002004B010BD006840F60011E5
:103F5000C005C0F23D0101EAE07004B010BDB1F14E
:103F6000805F13D112F4807210D040F60010C0F2BE
:103F70003D0004B010BD0068C0F3C10049F200016B
:103F8000C0F2D03121FA00F004B010BD006810F486
:103F900000301CBF41F60030C0F2B700B1F1005F45
:103FA00018BF002004B010BD80B500F055F844F2F1
:103FB00018414CF60203C5F60201C9F200030A6873
:103FC000C2F30322096801F00F019A5C595C02F008
:103FD0001F0220FA02F201F01F0040F20C4122FA07
:103FE00000F0C2F20001086040F20841C2F2000194
:103FF0000A6080BD0000000080B500F02DF844F29A
:10400000184C4CF60201C5F6020CC9F20001DCF8AE
:104010000020C2F30322DCF8003003F00F038A5CB7
:10402000CB5C02F01F02D04003F01F0240F20C43B1
:1040300020FA02F2C2F200031A6040F20843C2F210
:1040400000031860DCF80400C0F30210085C00F004
:104050001F0022FA00F080BD44F23041C5F6020193
:1040600051F8200CC0F3C200032812D0022843D01C
:10407000002846D151F8300C800649F20000C0F209
:10408000D03058BF704751F8301CC1F3C101C8404F
:10409000704751F8082C51F8080CC0F3051C51F872
:1040A000043C486803F00103BCF1000FC0F3CC00EE
:1040B00003FB00F000EE100AB8EE400A26D002F032
:1040C0000302022A36D0012A22D00ABB51F8300C52
:1040D000800653D401EE10CA9FED3B3AB8EE411A68
:1040E00008686FF35F2002EE100AB8EE422AA0EED5
:1040F000032A9FED380A2EE041F60030C0F2B700E7
:10410000704740F60010C0F23D0070470020704735
:1041100001EE10CA9FED2C3AB8EE411A08686FF311
:104120005F2002EE100AB8EE422AA0EE032A9FEDAD
:10413000280A10E001EE10CA9FED233AB8EE411AAA
:1041400008686FF35F2002EE100AB8EE422AA0EE74
:10415000032A9FED1E0AA2EE000A80EE010A0868FB
:10416000C0F34620013001EE100AB8EE411A80EE8D
:10417000010ABCEEC00A10EE100A704751F8300C6C
:1041800049F20002C0F2D03202EE10CAC0F3C10000
:104190009FED0D3A22FA00F0B7EE004A01EE100A48
:1041A000A0EE034AB8EE411AB8EE422A08686FF34F
:1041B0005F2000EE100AB8EE400A34EE000A20EE4E
:1041C000010A80EE020ACAE700000039001B374BE3
:1041D0000024744A0024744C20B3B0B5044690F80F
:1041E0002C000D4628B9002084F82D00204600F050
:1041F0001BF8022084F82C002068211DFDF7C8F868
:10420000D4E900022946FDF72FF944F20000C5F277
:104210000020016841F000410160012084F82C0079
:104220000020B0BD012070472DE9F04387B040F277
:10423000C8600026C2F20000069605960178CDE916
:1042400003660029029671D10121017044F2D44025
:1042500040F20044C5F60200C5F6020402AD4FF07C
:10426000020850F8881C4FF0030921F0030140F8C0
:10427000881C01680C2741F48051016000682946C0
:1042800000F48050019001984FF68370029004F57D
:104290004060CDE90386CDF814900697FDF71CFF2A
:1042A00020202946CDE902082046CDE90469069779
:1042B000FDF712FF48F237102946CDE9020804F550
:1042C000A050CDE904690697FDF706FF4CF2037094
:1042D0002946CDE9020804F50060CDE90469069796
:1042E000FDF7FAFE40F2FF602946CDE9020804F529
:1042F000E050CDE904690697FDF7EEFE4FF66070D9
:104300002946CDE9020804F5C050CDE904690697B5
:10431000FDF7E2FE4FF63F002946CDE9020804F51D
:104320008050CDE904690697FDF7D6FE07B0BDE8D9
:10433000F083000000000000B0B5054690F82C00A6
:10434000022801D10220B0BD95F82C0001240128DB
:1043500008D1022085F82C002868FDF761F885F85F
:104360002C4000242046B0BDB0B590F82C30044657
:104370000D460220052B04D0022B08BFB0BD012B37
:104380000DD184F82C0029462068FDF755F82868DF
:10439000022806D1052084F82C000020B0BD0120A1
:1043A000B0BD012084F82C000020B0BD000000004A
:1043B000B0B543F60045C5F60005286840F0010099
:1043C0002860FDF785FF04462868000706D4FDF73E
:1043D0007FFF001B0B28F7D30320B0BD0020B0BD2A
:1043E00043F60041C5F600010A6822F002021043BC
:1043F000086070470000000043F60041C5F6000168
:104400000A6822F070021043086070470000000044
:10441000411E0020B0EB116F01D0012070474EF219
:104420001002F023CEF2000251604EF62351CEF27C
:1044300000010B70072190601160704700000000C0
:10444000FEE70000000000002DE9F04740F61807E5
:1044500043F20004C5F60207C4F201044FF48026BB
:1044600007253E6040F276692669C2F2000926F00F
:10447000080626612668984626F001062660A6688A
:104480008A4665F30406A6606668012565F30F0693
:104490006660266846F0010626602568164645F4E3
:1044A00000712160002189F800102A2184F8201071
:1044B000616909075CBF61695FEA017105D46169DF
:1044C000090702D461690907F2D5A1690F2241F0F9
:1044D0000801A161A16941F01001A161216821F0E9
:1044E00001012160216821F001012160A16862F3CE
:1044F0000401A1600421396000F056FB304600F051
:1045000053FB4FF4802038602069072120F0080019
:104510002061206820F001002060A06861F30400A1
:10452000A0606068012161F30F006060206840F0C6
:1045300001002060206840F400702060002089F8AD
:1045400000002B2084F82000606900075CBF6069D0
:104550005FEA007005D46069000702D46069000753
:10456000F2D5A0690F2140F00800A061A06940F0D9
:104570001000A061206820F001002060206820F079
:1045800001002060A06861F30400A060042038608E
:104590000AF1140080B200F007FB08F1140080B2A9
:1045A00000F002FB4FF4802038602069072120F0E2
:1045B00008002061206820F001002060A06861F3FD
:1045C0000400A0606068012161F30F006060206852
:1045D00040F001002060206840F40070206000205E
:1045E00089F800002C2084F820006069000709D4B5
:1045F000606900075CBF60695FEA007002D46069AF
:104600000007F2D5A0690F2140F00800A061A06961
:1046100040F01000A061206820F0010020602068B8
:1046200020F001002060A06861F30400A060042075
:104630003860BDE8F08700002DE9F04F82B00B9C98
:1046400001264FEA540C27095FEA4C7518BF06EBA8
:10465000141707FB04FEBEF1000F00F0C6810C3CEE
:10466000203AE5B2AD0845EA84145FFA84FABAF15B
:10467000000FD2B2019200F08B80BAF1010F40F02E
:104680000F8142F22854019DC2F2000440F2746886
:10469000002204EB0519C2F200080025064600BFFF
:1046A00019F80220D8F808B08FB2D407C7F1EF0A82
:1046B00006D0B4B2C4EB04140BEB441424F81A3043
:1046C000741CA7B23C1A64455AD0940705D5C7EBB1
:1046D00007140BEB441424F81A30B41CA7B23C1A8C
:1046E00064454DD0540705D5C7EB07140BEB4414B4
:1046F00024F81A30F41CA7B23C1A644540D01407C1
:1047000005D5C7EB07140BEB441424F81A30341DFD
:10471000A7B23C1A644533D0D40605D5C7EB0714BD
:104720000BEB441424F81A30741DA7B23C1A6445EC
:1047300026D0940605D5C7EB07140BEB441424F8D8
:104740001A30B41DA7B23C1A644519D0540605D5D9
:10475000C7EB07140BEB441424F81A30F41DA7B26E
:104760003C1A64450CD0120605D5C7EB07120BEBBB
:10477000421222F81A300836B2B2121A624501D13A
:10478000013106460135AAB296453FF689AF2CE1C4
:10479000019A42F2B405C2F2000540F2746802EBDD
:1047A00042040022C2F20008064605EB84090025F7
:1047B00019F80220D8F808B08FB2D407C7F1EF0A71
:1047C00006D0B4B2C4EB04140BEB441424F81A3032
:1047D000741CA7B23C1A64455AD0940705D5C7EBA0
:1047E00007140BEB441424F81A30B41CA7B23C1A7B
:1047F00064454DD0540705D5C7EB07140BEB4414A3
:1048000024F81A30F41CA7B23C1A644540D01407AF
:1048100005D5C7EB07140BEB441424F81A30341DEC
:10482000A7B23C1A644533D0D40605D5C7EB0714AC
:104830000BEB441424F81A30741DA7B23C1A6445DB
:1048400026D0940605D5C7EB07140BEB441424F8C7
:104850001A30B41DA7B23C1A644519D0540605D5C8
:10486000C7EB07140BEB441424F81A30F41DA7B25D
:104870003C1A64450CD0120605D5C7EB07120BEBAA
:10488000421222F81A300836B2B2121A624501D129
:10489000013106460135AAB296453FF689AFA4E03C
:1048A00043F6E844019D0022C2F2000400270646B8
:1048B00004EB8514009400BFBAF1050F0ED0BAF1D5
:1048C000030F40F09280019C42F61835C2F20005B9
:1048D00004EB440405EB041401E000BF009C2244F7
:1048E0008CB292F80080C4F1EF0B5FEAC87240F21C
:1048F0007462C2F20002926806D0B4B2C4EB04142F
:1049000002EB441424F81B30741C1FFA84F9A9EB41
:104910000004644562D05FEA887405D5C9EB0914C8
:1049200002EB441424F81B30B41CA4B2251A6545CC
:1049300054D05FEA487505D5C4EB041402EB441467
:1049400024F81B30F41CA4B2251A654546D05FEA52
:10495000087505D5C4EB041402EB441424F81B308D
:10496000341DA4B2251A654538D05FEAC86505D55F
:10497000C4EB041402EB441424F81B30741DA4B2DD
:10498000251A65452AD05FEA886505D5C4EB04146D
:1049900002EB441424F81B30B41DA4B2251A65455B
:1049A0001CD05FEA486505D5C4EB041402EB44143F
:1049B00024F81B30F41DA4B2251A65450ED05FEA19
:1049C000086505D5C4EB041402EB441222F81B3031
:1049D0000836B2B2121A624502D100BF0131064652
:1049E0000137BAB296453FF667AF02B0BDE8F08F27
:1049F0002DE9F04782B01778AFB1DDF828809946ED
:104A00008A4606464FEA5804551E00BFB0B25146CA
:104A1000FAB24B46CDF80080FFF70EFEAF78264481
:104A20000135002FF2D102B0BDE8F0870000000090
:104A30002DE9F04102441FFA82F8804535D9C1F1D1
:104A4000F001A1EB030C1FFA8CFE89B2714598BFEF
:104A5000BDE8F08140F27462069BC2F200029468E5
:104A600003E000BF013040451FD07746654600BFD8
:104A7000C0EB001204EB42166A1C92B2914226F877
:104A80001730EFD9AF1C26F81230BFB2B942E9D9BE
:104A9000EA1C26F8173092B29142E3D9043526F881
:104AA0001230AFB2B942E3D8DCE7BDE8F0810000D4
:104AB000B0B540F27464C2F200042078022828D312
:104AC00000202070607845F65822C2F2000245F6B8
:104AD0005C2CB0FA80F0C2F2000C40096070A08833
:104AE0000130A08045F20800C5F600404168116021
:104AF00045F6542145F66022C2F20001C2F20002DE
:104B00000068086008681368C01ACCF800000868DC
:104B10001060607840F280622178C0F2010240F6B5
:104B200000530028CDF2020301FB023523786FF019
:104B3000730003FB00F040F20003CDF2000308BF56
:104B400001FB02358B22C1B252FA80F30020EF2222
:104B5000FFF77AFC102043F20001C4F20200C4F215
:104B6000010101F1200248F24033C56082604268D1
:104B700063F30F0242604A6863F30F024A600A68F7
:104B800042F001020A600A6942F008020A610A68FA
:104B900042F400720A60016841F00101016020786E
:104BA00001302070B0BD000043F200010723C4F2C1
:104BB000010140F2766CC2F2000C0A6922F0080290
:104BC0000A610A6822F001020A608A6863F304023B
:104BD0008A604A68012363F30F024A600A6800236F
:104BE00042F001020A600A6842F400720A608CF81E
:104BF0000030030A81F820304B691B075CBF4A690B
:104C00005FEA027205D44A69120702D44A691207A0
:104C1000F2D58B690F2243F008038B618B6943F057
:104C200010038B610B6823F001030B600B6823F00A
:104C300001030B608B6862F304038B600A6907232E
:104C400022F008020A610A6822F001020A608A68FA
:104C500063F304028A604A68012363F30F024A6027
:104C60000A6842F001020A600A6842F400720A60AF
:104C700000228CF8002081F820004869000709D440
:104C8000486900075CBF48695FEA007002D4486960
:104C90000007F2D588690F2240F008008861886912
:104CA00040F010008861086820F001000860086882
:104CB00020F001000860886862F304008860704793
:104CC0002DE9F0430B6893FAA3F2B2FA82F233FAB9
:104CD00002F659D04FF0010C0CE000BFD1E90034CE
:104CE000066804FB0EF72E4037430760013233FAA3
:104CF00002F749D00CFA02F613EA0604F6D04E6821
:104D000004FB04FE751E022D18D2D0F808808F68AF
:104D10000EEB4E0507FB0EF928EA0507D1F80C80CB
:104D2000ED4347EA09078760D0F8049008FB03F7D2
:104D300029EA03033B43436003E000BF0EEB4E034D
:104D4000DD430B69C7682F40022E03FB0EF343EAD5
:104D50000703C360C2D1230AB4F5807F03FB03F3CA
:104D60004FF0240403FB03F33CBF20240EFB0EF39F
:104D7000D1F814800759C3EB031608FB03F327EAA5
:104D8000060633430351A9E70020BDE8F083000085
:104D900080B544F20041C5F602018A6A02F00302BE
:104DA000022A09D0012A0ED01AB90A68520700F166
:104DB000A1804FF0000C0EE00A6841F60033920328
:104DC000C0F2B70305E00A6840F60013D205C0F24E
:104DD0003D0303EAE27C0022C0E9002282608A6A85
:104DE000C2F3051E0A6BCB6ADB0773D19FED460A3F
:104DF000BEF1000F7DD06FF35F22CB6ADB0302F1BF
:104E000001021FD50B6B01EE10CA02EE10EA03EE91
:104E1000102AC3F346230133B8EE411AB8EE422AF2
:104E200004EE103AB8EE433AB8EE444A30EE033A94
:104E300024EE022A23EE011A81EE021ABCEEC11AF8
:104E400080ED001ACB6A9B031FD50B6B01EE10CAD5
:104E500002EE10EA03EE102AC3F306430133B8EE64
:104E6000411AB8EE422A04EE103AB8EE433AB8EED0
:104E7000444A30EE033A24EE022A23EE011A81EE70
:104E8000021ABCEEC11A80ED011ACB6A5B0358BF4F
:104E900080BD01EE10CA02EE10EA03EE102A096B83
:104EA000C1F30661B8EE411AB8EE422A0131B8EEFC
:104EB000433A30EE030A03EE101AB8EE433A20EEFE
:104EC000010A23EE021A80EE010ABCEEC00A80ED50
:104ED000020A80BD4B6B9FED0D1AC3F3CC0300EEAD
:104EE000103AB8EE400A20EE010ABEF1000F7FF43E
:104EF00082AF80BD0A6849F20003C0F2D033C2F32A
:104F0000C10223FA02FC66E700000000000000393D
:104F100080B544F20041C5F602018A6A02F003023C
:104F2000022A09D0012A0ED01AB90A68520700F1E4
:104F3000A1804FF0000C0EE00A6841F600339203A6
:104F4000C0F2B70305E00A6840F60013D205C0F2CC
:104F50003D0303EAE27C0022C0E9002282608A6A03
:104F6000C2F3053E8A6BCB6ADB0673D49FED460A1B
:104F7000BEF1000F7DD06FF35F22CB6A1B0302F1FD
:104F800001021FD58B6B01EE10CA02EE10EA03EE90
:104F9000102AC3F346230133B8EE411AB8EE422A71
:104FA00004EE103AB8EE433AB8EE444A30EE033A13
:104FB00024EE022A23EE011A81EE021ABCEEC11A77
:104FC00080ED001ACB6ADB021FD58B6B01EE10CA95
:104FD00002EE10EA03EE102AC3F306430133B8EEE3
:104FE000411AB8EE422A04EE103AB8EE433AB8EE4F
:104FF000444A30EE033A24EE022A23EE011A81EEEF
:10500000021ABCEEC11A80ED011ACB6A9B0258BF8E
:1050100080BD01EE10CA02EE10EA03EE102A896B81
:10502000C1F30661B8EE411AB8EE422A0131B8EE7A
:10503000433A30EE030A03EE101AB8EE433A20EE7C
:10504000010A23EE021A80EE010ABCEEC00A80EDCE
:10505000020A80BDCB6B9FED0D1AC3F3CC0300EEAB
:10506000103AB8EE400A20EE010ABEF1000F7FF4BC
:1050700082AF80BD0A6849F20003C0F2D033C2F3A8
:10508000C10223FA02FC66E70000000000000039BC
:1050900010B544F20041C5F602018A6A02F003022B
:1050A000022A09D0012A0ED01AB90A68520700F163
:1050B000A6804FF0000E0EE00A6841F6003392031E
:1050C000C0F2B70305E00A6840F60013D205C0F24B
:1050D0003D0303EAE27E0022C0E9002282608A6A80
:1050E000C2F305540A6CCB6ADB0576D49FED490AFE
:1050F000BEF1000F18BF002C00F080806FF35F221C
:10510000CB6A5B0202F1010C1FD50A6C01EE10EABA
:1051100002EE104A03EE10CAC2F346220132B8EE84
:10512000411AB8EE422A04EE102AB8EE433AB8EE1D
:10513000444A30EE033A24EE022A23EE011A81EEAD
:10514000021ABCEEC11A80ED001ACA6A12021FD5FB
:105150000A6C01EE10EA02EE104A03EE10CAC2F326
:1051600006420132B8EE411AB8EE422A04EE102A85
:10517000B8EE433AB8EE444A30EE033A24EE022A3F
:1051800023EE011A81EE021ABCEEC11A80ED011A5B
:10519000CA6AD20158BF10BD01EE10EA02EE104AF1
:1051A00003EE10CA096CC1F30661B8EE411AB8EEFD
:1051B000422A0131B8EE433A30EE030A03EE101AE8
:1051C000B8EE433A20EE010A23EE021A80EE010AFD
:1051D000BCEEC00A80ED020A10BD4B6C9FED0E1AAA
:1051E000C3F3CC0300EE103AB8EE400A20EE010AF9
:1051F000BEF1000F18BF002C7FF480AF10BD0A680D
:1052000049F20003C0F2D033C2F3C10223FA02FE16
:1052100061E700BF0000000000000039000000004E
:1052200010B584B040F244210246C0F2580144F265
:10523000004461F31F22C5F60204D16C020EC0F3D4
:1052400004239A401140D94040EA01410720C0F2AE
:10525000037081424FF0000017DC40F20732C0F2C9
:105260000172914228DC0822C0F20072914273D090
:1052700040F20832C0F20072914200F080800822B1
:10528000C0F20172914257D054E040F20732C0F2AE
:10529000047291422ADC0822C0F2037291423DD08E
:1052A00040F20832C0F20372914237D00822C0F2B5
:1052B0000472914246D03DE040F20832C0F20172E1
:1052C000914239D00822C0F20272914205D040F2D8
:1052D0000832C0F2027291422CD1206880002ED593
:1052E00001A8FFF7D5FE029804B010BD40F20832C5
:1052F000C0F20472914225D00822C0F20572914298
:1053000005D040F20832C0F20572914212D1206FEE
:105310004FF4004101EA803004B010BD206840071E
:105320000DD5206849F20001C0F2D031C0F3C100B0
:1053300021FA00F004B010BD2068000132D4002032
:1053400004B010BD206840F60011C005C0F23D0158
:1053500001EAE07004B010BD2069C0F3C200032868
:1053600026D8DFE800F002272C31206849F200013E
:10537000C0F2D031C0F3C10021FA00F028E020696A
:10538000C0F3C200032841D8DFE800F00231363B09
:10539000206849F20001C0F2D031C0F3C10021FA07
:1053A00000F034E001A8FFF7B3FD029804B010BD8F
:1053B00000200DE040F60010C0F23D0008E041F68C
:1053C0000030C0F2B70003E001A8FFF7E1FC01984C
:1053D000A1694CF61202C9F20002C1F30321A369CC
:1053E000E46903F00F03515CC4F302141DE040F6BE
:1053F0000010C0F23D000AE041F60030C0F2B700F4
:1054000005E001A8FFF7C4FC019800E00020A169B5
:105410004CF61202C9F20002C1F30321A369E46948
:1054200003F00F03515CC4F30224D35C125D01F05E
:105430001F01C84003F01F01C84002F01F01C8400F
:1054400004B010BD00000000B0B50268D20747D11B
:105450004FF6E0738268C8F6BF73D1F820C01A40D7
:105460008B691A438B6842EA0C044D684A692343EE
:105470008360B2F1806FC3680FD103F0805EB5F531
:10548000800F08BFBEF1000F03D035B9BEF1000F89
:1054900003D0036843F4805303604FF6FF74C3687E
:1054A000CDF639042A432340CC6822430C691A43C1
:1054B0000D68CB69224305F4C0241A432243C2601D
:1054C0000268EB0ABCF5800F63F3CB22026001D1C6
:1054D000496A0164016D21F0010101650020B0BD40
:1054E0000120B0BD0000000040F20841C2F20001FE
:1054F0000860704700000000B0B504460068C007AF
:1055000039D10D4646F6F31105F108032068CEF6B1
:10551000FF7108400ECB084369691843EB690843E3
:10552000082118432060606847F2FF7320F4405060
:10553000C4F2000310436060A869A26822F44072BC
:10554000C0F2007110439C42A0604FF0010014DCD7
:1055500044F6FF32C4F20002944221DC44F20042DD
:10556000C4F20002944236D044F60002C4F20002B3
:10557000944230D058E00120B0BD40F6FF72C4F232
:105580000102944219DC47F60002C4F20002944280
:1055900021D047F60042C4F2000294421BD043E0FF
:1055A00044F60042C4F20002944214D045F20002D4
:1055B000C4F2000294420ED036E041F2000201F53E
:1055C0004071C4F20102944205D041F20042C4F29B
:1055D0000102944228D10846FFF722FEC8B169684B
:1055E000C9B12A680B2A1ED813A353F82220B0FB96
:1055F000F2F0EA69B2F5004F0FD1400000EB510024
:10560000B0FBF1F04FF6F0710140C0F342000844E6
:1056100008E0012008E0012006E000EB5100B0FBAB
:10562000F1F080B2E06000202988E26A22F00F02E7
:105630001143E162B0BD00BF0100000002000000A4
:105640000400000006000000080000000A0000003E
:105650000C000000100000002000000040000000CE
:10566000800000000001000081B0411C4EF21000DB
:10567000CEF2000028BF4FF0FF3102680092009A7E
:10568000B1B10268D20301EBE27189B10268D203C1
:1056900001EBE27100291FBF0268D20301EBE27146
:1056A000002905D00268D20301EBE2710029E8D19C
:1056B00001B070470000000070B540F6180440F2D9
:1056C0007C60C5F60204C2F2000040F2000143F221
:1056D0000005CDF2000101604FF4002020600A2097
:1056E000C4F20105FFF7C0FF082020600A20FFF781
:1056F000BBFF4FF4802020602869072120F00800BC
:105700002861286840F2766620F001002860A868C9
:10571000C2F2000661F30400A8606868012161F329
:105720000F006860286840F001002860286840F495
:105730000070286000203070112085F8200000BF24
:10574000686900075CBF68695FEA007005D4686932
:10575000000702D468690007F2D5A8690F2140F05C
:105760000800A861A86940F01000A861286820F02E
:1057700001002860286820F001002860A86861F313
:105780000400A860042020600A20FFF76DFF4FF49A
:10579000802020602869072120F0080028612868FF
:1057A00020F001002860A86861F30400A860686820
:1057B000012161F30F006860286840F00100286053
:1057C000286840F40070286000203070362085F88A
:1057D000200000BF686900075CBF68695FEA00706D
:1057E00005D46869000702D468690007F2D5A86982
:1057F0000F2140F00800A861A86940F01000A861DE
:10580000286820F001002860286820F00100286046
:10581000A86861F30400A8600420206028690721BB
:1058200020F008002861286820F001002860A8689E
:1058300061F30400A8606868012161F30F006860EB
:10584000286840F001002860286840F40070286053
:105850000020307085F82000686900075CBF686927
:105860005FEA007005D46869000702D46869000720
:10587000F2D5A8690F2140F00800A861A86940F09E
:105880001000A861286820F001002860286820F036
:1058900001002860A86861F30400A8604FF480202C
:1058A00020602869072120F008002861286820F07E
:1058B00001002860A86861F30400A86068680121FD
:1058C00061F30F006860286840F0010028602868D4
:1058D00040F400702860002030703A2085F82000E5
:1058E000686900075CBF68695FEA007005D4686991
:1058F000000702D468690007F2D5A8690F2140F0BB
:105900000800A861A86940F01000A861286820F08C
:1059100001002860286820F001002860A86861F371
:105920000400A860042020602869072120F00800F6
:105930002861286820F001002860A86861F304004D
:10594000A8606868012161F30F006860286840F072
:1059500001002860286840F4007028600020307042
:10596000052085F8200000BF686900075CBF6869F2
:105970005FEA007005D46869000702D4686900070F
:10598000F2D5A8690F2140F00800A861A86940F08D
:105990001000A861286820F001002860286820F025
:1059A00001002860A86861F30400A8604FF480201B
:1059B00020602869072120F008002861286820F06D
:1059C00001002860A86861F30400A86068680121EC
:1059D00061F30F006860286840F0010028602868C3
:1059E00040F40070286000203070B22085F820005C
:1059F000686900075CBF68695FEA007005D4686980
:105A0000000702D468690007F2D5A8690F2140F0A9
:105A10000800A861A86940F01000A861286820F07B
:105A200001002860286820F001002860A86861F360
:105A30000400A860042020602869072120F00800E5
:105A40002861286820F001002860A86861F304003C
:105A5000A8606868012161F30F006860286840F061
:105A600001002860286840F4007028600020307031
:105A700085F82000686900075CBF68695FEA00700C
:105A800005D46869000702D468690007F2D5A869DF
:105A90000F2140F00800A861A86940F01000A8613B
:105AA000286820F001002860286820F001002860A4
:105AB000A86861F30400A8602869072120F00800A5
:105AC0002861286820F001002860A86861F30400BC
:105AD000A8606868012161F30F006860286840F0E1
